{
  "_format": "hh-sol-artifact-1",
  "contractName": "CollateralizedLoan",
  "sourceName": "contracts/Collateralized Loan.sol",
  "abi": [
    {
      "anonymous": false,
      "inputs": [
        {
          "indexed": true,
          "internalType": "uint256",
          "name": "loanId",
          "type": "uint256"
        },
        {
          "indexed": false,
          "internalType": "uint256",
          "name": "timestamp",
          "type": "uint256"
        }
      ],
      "name": "CollateralClaimed",
      "type": "event"
    },
    {
      "anonymous": false,
      "inputs": [
        {
          "indexed": true,
          "internalType": "uint256",
          "name": "loanId",
          "type": "uint256"
        },
        {
          "indexed": false,
          "internalType": "uint256",
          "name": "timestamp",
          "type": "uint256"
        },
        {
          "indexed": false,
          "internalType": "address",
          "name": "lender",
          "type": "address"
        }
      ],
      "name": "LoanFunded",
      "type": "event"
    },
    {
      "anonymous": false,
      "inputs": [
        {
          "indexed": true,
          "internalType": "uint256",
          "name": "loanId",
          "type": "uint256"
        },
        {
          "indexed": false,
          "internalType": "uint256",
          "name": "timestamp",
          "type": "uint256"
        },
        {
          "indexed": false,
          "internalType": "uint256",
          "name": "amount",
          "type": "uint256"
        }
      ],
      "name": "LoanRepaid",
      "type": "event"
    },
    {
      "anonymous": false,
      "inputs": [
        {
          "indexed": true,
          "internalType": "uint256",
          "name": "loanId",
          "type": "uint256"
        },
        {
          "indexed": false,
          "internalType": "uint256",
          "name": "timestamp",
          "type": "uint256"
        },
        {
          "indexed": false,
          "internalType": "address",
          "name": "borrower",
          "type": "address"
        }
      ],
      "name": "LoanRequested",
      "type": "event"
    },
    {
      "inputs": [
        {
          "internalType": "uint256",
          "name": "_loanId",
          "type": "uint256"
        },
        {
          "internalType": "uint256",
          "name": "timestamp",
          "type": "uint256"
        }
      ],
      "name": "calculateAmountDue",
      "outputs": [
        {
          "internalType": "uint256",
          "name": "",
          "type": "uint256"
        }
      ],
      "stateMutability": "view",
      "type": "function"
    },
    {
      "inputs": [
        {
          "internalType": "uint256",
          "name": "_loanId",
          "type": "uint256"
        }
      ],
      "name": "claimCollateral",
      "outputs": [],
      "stateMutability": "nonpayable",
      "type": "function"
    },
    {
      "inputs": [
        {
          "internalType": "uint256",
          "name": "_interestRate",
          "type": "uint256"
        },
        {
          "internalType": "uint256",
          "name": "_duration",
          "type": "uint256"
        }
      ],
      "name": "depositCollateralAndRequestLoan",
      "outputs": [],
      "stateMutability": "payable",
      "type": "function"
    },
    {
      "inputs": [
        {
          "internalType": "uint256",
          "name": "_loanId",
          "type": "uint256"
        }
      ],
      "name": "fundLoan",
      "outputs": [],
      "stateMutability": "payable",
      "type": "function"
    },
    {
      "inputs": [
        {
          "internalType": "uint256",
          "name": "_loanId",
          "type": "uint256"
        }
      ],
      "name": "getLoan",
      "outputs": [
        {
          "components": [
            {
              "internalType": "uint256",
              "name": "id",
              "type": "uint256"
            },
            {
              "internalType": "address payable",
              "name": "borrower",
              "type": "address"
            },
            {
              "internalType": "address payable",
              "name": "lender",
              "type": "address"
            },
            {
              "internalType": "uint256",
              "name": "collateral",
              "type": "uint256"
            },
            {
              "internalType": "uint256",
              "name": "loanAmount",
              "type": "uint256"
            },
            {
              "internalType": "uint256",
              "name": "interestRate",
              "type": "uint256"
            },
            {
              "internalType": "uint256",
              "name": "startDate",
              "type": "uint256"
            },
            {
              "internalType": "uint256",
              "name": "dueDate",
              "type": "uint256"
            },
            {
              "internalType": "bool",
              "name": "isFunded",
              "type": "bool"
            },
            {
              "internalType": "bool",
              "name": "isRepaid",
              "type": "bool"
            }
          ],
          "internalType": "struct CollateralizedLoan.Loan",
          "name": "",
          "type": "tuple"
        }
      ],
      "stateMutability": "view",
      "type": "function"
    },
    {
      "inputs": [
        {
          "internalType": "uint256",
          "name": "",
          "type": "uint256"
        }
      ],
      "name": "loans",
      "outputs": [
        {
          "internalType": "uint256",
          "name": "id",
          "type": "uint256"
        },
        {
          "internalType": "address payable",
          "name": "borrower",
          "type": "address"
        },
        {
          "internalType": "address payable",
          "name": "lender",
          "type": "address"
        },
        {
          "internalType": "uint256",
          "name": "collateral",
          "type": "uint256"
        },
        {
          "internalType": "uint256",
          "name": "loanAmount",
          "type": "uint256"
        },
        {
          "internalType": "uint256",
          "name": "interestRate",
          "type": "uint256"
        },
        {
          "internalType": "uint256",
          "name": "startDate",
          "type": "uint256"
        },
        {
          "internalType": "uint256",
          "name": "dueDate",
          "type": "uint256"
        },
        {
          "internalType": "bool",
          "name": "isFunded",
          "type": "bool"
        },
        {
          "internalType": "bool",
          "name": "isRepaid",
          "type": "bool"
        }
      ],
      "stateMutability": "view",
      "type": "function"
    },
    {
      "inputs": [],
      "name": "nextLoanId",
      "outputs": [
        {
          "internalType": "uint256",
          "name": "",
          "type": "uint256"
        }
      ],
      "stateMutability": "view",
      "type": "function"
    },
    {
      "inputs": [
        {
          "internalType": "uint256",
          "name": "_loanId",
          "type": "uint256"
        }
      ],
      "name": "repayLoan",
      "outputs": [],
      "stateMutability": "payable",
      "type": "function"
    }
  ],
  "bytecode": "0x60806040526301e187e060025534801561001857600080fd5b50610d7e806100286000396000f3fe60806040526004361061007b5760003560e01c806387c514591161004e57806387c514591461010c578063ab7b1c8914610122578063c49785b414610135578063e1ec3c681461015557600080fd5b8063504006ca146100805780636aedfe68146100b65780638337cf8f146100e4578063846b909a146100f9575b600080fd5b34801561008c57600080fd5b506100a061009b366004610bb8565b61022d565b6040516100ad9190610bd1565b60405180910390f35b3480156100c257600080fd5b506100d66100d1366004610c6a565b610335565b6040519081526020016100ad565b6100f76100f2366004610c6a565b6103c4565b005b6100f7610107366004610bb8565b610610565b34801561011857600080fd5b506100d660015481565b6100f7610130366004610bb8565b6107a6565b34801561014157600080fd5b506100f7610150366004610bb8565b6109c8565b34801561016157600080fd5b506101d3610170366004610bb8565b60006020819052908152604090208054600182015460028301546003840154600485015460058601546006870154600788015460089098015496976001600160a01b03968716979690951695939492939192909160ff808216916101009004168a565b604080519a8b526001600160a01b03998a1660208c015297909816968901969096526060880194909452608087019290925260a086015260c085015260e084015215156101008301521515610120820152610140016100ad565b6102996040518061014001604052806000815260200160006001600160a01b0316815260200160006001600160a01b0316815260200160008152602001600081526020016000815260200160008152602001600081526020016000151581526020016000151581525090565b50600090815260208181526040918290208251610140810184528154815260018201546001600160a01b03908116938201939093526002820154909216928201929092526003820154606082015260048201546080820152600582015460a0820152600682015460c0820152600782015460e082015260089091015460ff80821615156101008085019190915290910416151561012082015290565b600082815260208190526040812060058101548290610355906064610b81565b9050600061037c600254610376856006015488610b9490919063ffffffff16565b90610b81565b9050600061039b82610376866004015486610ba090919063ffffffff16565b905060006103b6828660040154610bac90919063ffffffff16565b955050505050505b92915050565b34806104225760405162461bcd60e51b815260206004820152602260248201527f436f6c6c61746572616c206d7573742062652067726561746572207468616e20604482015261181760f11b60648201526084015b60405180910390fd5b600061042f826002610ba0565b9050600061045261044b60025486610ba090919063ffffffff16565b4290610bac565b60018054919250600061046483610ca2565b919050555060006001549050604051806101400160405280828152602001336001600160a01b0316815260200160006001600160a01b03168152602001858152602001848152602001878152602001428152602001838152602001600015158152602001600015158152506000808381526020019081526020016000206000820151816000015560208201518160010160006101000a8154816001600160a01b0302191690836001600160a01b0316021790555060408201518160020160006101000a8154816001600160a01b0302191690836001600160a01b03160217905550606082015181600301556080820151816004015560a0820151816005015560c0820151816006015560e082015181600701556101008201518160080160006101000a81548160ff0219169083151502179055506101208201518160080160016101000a81548160ff021916908315150217905550905050807ff56c1b7cae7b8c2b75ff8e0df0488212144e7903e941c1c82d7aaee11fea307742336040516106009291909182526001600160a01b0316602082015260400190565b60405180910390a2505050505050565b600081815260208190526040902054819061063d5760405162461bcd60e51b815260040161041990610cbb565b600082815260208190526040902060080154829060ff16156106935760405162461bcd60e51b815260206004820152600f60248201526e2637b0b71034b990333ab73232b21760891b6044820152606401610419565b6000838152602081905260409020600481015434146106f45760405162461bcd60e51b815260206004820181905260248201527f4c6f616e206d7573742062652074686520636f727265637420616d6f756e742e6044820152606401610419565b60018101546040516001600160a01b03909116903480156108fc02916000818181858888f1935050505015801561072f573d6000803e3d6000fd5b506002810180546001600160a01b0319163390811790915560088201805460ff1916600117905560405185917f6901745f630eee5ac4fb2d5356bb0f2a802a8b43d1e95a4d072ae187fddbde1991610798914282526001600160a01b0316602082015260400190565b60405180910390a250505050565b60008181526020819052604090205481906107d35760405162461bcd60e51b815260040161041990610cbb565b600082815260208190526040902060080154829060ff1615156001146108315760405162461bcd60e51b81526020600482015260136024820152722637b0b71034b9903737ba10333ab73232b21760691b6044820152606401610419565b600083815260208190526040902060078101544211156108875760405162461bcd60e51b81526020600482015260116024820152702637b0b7103430b99032bc3834b932b21760791b6044820152606401610419565b60006108938542610335565b90508034146108f05760405162461bcd60e51b815260206004820152602360248201527f56616c756520697320646966666572656e74207468616e20616d6f756e7420646044820152623ab29760e91b6064820152608401610419565b60028201546040516001600160a01b03909116903480156108fc02916000818181858888f1935050505015801561092b573d6000803e3d6000fd5b50600182015460038301546040516001600160a01b039092169181156108fc0291906000818181858888f1935050505015801561096c573d6000803e3d6000fd5b506000600383015560088201805461ff001916610100179055604080514281526020810183905286917fd9cfbcfb9ae5d65b8d34072de4575f602ee25cf3715bc05c291701fe9e258f9a91015b60405180910390a25050505050565b60008181526020819052604090205481906109f55760405162461bcd60e51b815260040161041990610cbb565b600082815260208190526040902060080154829060ff161515600114610a535760405162461bcd60e51b81526020600482015260136024820152722637b0b71034b9903737ba10333ab73232b21760691b6044820152606401610419565b6000838152602081905260409020600801548390610100900460ff1615610aae5760405162461bcd60e51b815260206004820152600f60248201526e2637b0b71034b9903932b830b4b21760891b6044820152606401610419565b600084815260208190526040902060078101544211610b075760405162461bcd60e51b81526020600482015260156024820152742637b0b71034b99039ba34b6361030b1ba34bb329760591b6044820152606401610419565b600281015460038201546040516001600160a01b039092169181156108fc0291906000818181858888f19350505050158015610b47573d6000803e3d6000fd5b506000600382015560405142815285907f1f088c41722ad237885281d65d2ff9fb69db65ca083e2760e3d1b4788748aa57906020016109b9565b6000610b8d8284610ce9565b9392505050565b6000610b8d8284610d0b565b6000610b8d8284610d1e565b6000610b8d8284610d35565b600060208284031215610bca57600080fd5b5035919050565b81518152602080830151610140830191610bf5908401826001600160a01b03169052565b506040830151610c1060408401826001600160a01b03169052565b50606083015160608301526080830151608083015260a083015160a083015260c083015160c083015260e083015160e083015261010080840151610c578285018215159052565b5050610120928301511515919092015290565b60008060408385031215610c7d57600080fd5b50508035926020909101359150565b634e487b7160e01b600052601160045260246000fd5b600060018201610cb457610cb4610c8c565b5060010190565b6020808252601490820152732637b0b7103237b2b9903737ba1032bc34b9ba1760611b604082015260600190565b600082610d0657634e487b7160e01b600052601260045260246000fd5b500490565b818103818111156103be576103be610c8c565b80820281158282048414176103be576103be610c8c565b808201808211156103be576103be610c8c56fea2646970667358221220eda0196200a7f1729e4afe511a3618c496f4f2adbb6af182c66c420e7029629464736f6c63430008130033",
  "linkReferences": {},
  "deployedLinkReferences": {}
}